:100000000C942A000C9434000C9434000C943400AA
:100010000C9434000C9434000C9434000C94340090
:100020000C9434000C9434000C9434000C94340080
:100030000C9434000C9434000C9434000C94340070
:100040000C9434000C9434000C9434000C94340060
:100050000C94340011241FBECFE5D8E0DEBFCDBF25
:100060000E943A000C9452000C94000089E683BF71
:10007000BB9A08950E94360080E08CBFEFE7FEE354
:100080003197F1F700C000008F5F8F3FB1F78CBF51
:10009000EFE7FEE33197F1F700C0000081508130B7
:0800A000B1F7EACFF894FFCF9D
:00000001FF
